{
  "_format": "hh-sol-artifact-1",
  "contractName": "Contract",
  "sourceName": "contracts/Contract.sol",
  "abi": [
    {
      "inputs": [],
      "stateMutability": "nonpayable",
      "type": "constructor"
    },
    {
      "anonymous": false,
      "inputs": [
        {
          "indexed": false,
          "internalType": "string",
          "name": "",
          "type": "string"
        }
      ],
      "name": "Transfer",
      "type": "event"
    },
    {
      "anonymous": false,
      "inputs": [
        {
          "indexed": false,
          "internalType": "string",
          "name": "",
          "type": "string"
        }
      ],
      "name": "Withdrawal",
      "type": "event"
    },
    {
      "inputs": [],
      "name": "contractOwner",
      "outputs": [
        {
          "internalType": "string",
          "name": "",
          "type": "string"
        }
      ],
      "stateMutability": "view",
      "type": "function"
    },
    {
      "inputs": [],
      "name": "getBalance",
      "outputs": [
        {
          "internalType": "uint256",
          "name": "",
          "type": "uint256"
        }
      ],
      "stateMutability": "view",
      "type": "function"
    },
    {
      "inputs": [],
      "name": "transferFunds",
      "outputs": [],
      "stateMutability": "payable",
      "type": "function"
    },
    {
      "inputs": [],
      "name": "withdrawFunds",
      "outputs": [],
      "stateMutability": "payable",
      "type": "function"
    }
  ],
  "bytecode": "0x60806040523480156200001157600080fd5b506040518060400160405280600781526020017f53616b7368616d0000000000000000000000000000000000000000000000000081525060009081620000589190620002d9565b50620003c0565b600081519050919050565b7f4e487b7100000000000000000000000000000000000000000000000000000000600052604160045260246000fd5b7f4e487b7100000000000000000000000000000000000000000000000000000000600052602260045260246000fd5b60006002820490506001821680620000e157607f821691505b602082108103620000f757620000f662000099565b5b50919050565b60008190508160005260206000209050919050565b60006020601f8301049050919050565b600082821b905092915050565b600060088302620001617fffffffffffffffffffffffffffffffffffffffffffffffffffffffffffffffff8262000122565b6200016d868362000122565b95508019841693508086168417925050509392505050565b6000819050919050565b6000819050919050565b6000620001ba620001b4620001ae8462000185565b6200018f565b62000185565b9050919050565b6000819050919050565b620001d68362000199565b620001ee620001e582620001c1565b8484546200012f565b825550505050565b600090565b62000205620001f6565b62000212818484620001cb565b505050565b5b818110156200023a576200022e600082620001fb565b60018101905062000218565b5050565b601f82111562000289576200025381620000fd565b6200025e8462000112565b810160208510156200026e578190505b620002866200027d8562000112565b83018262000217565b50505b505050565b600082821c905092915050565b6000620002ae600019846008026200028e565b1980831691505092915050565b6000620002c983836200029b565b9150826002028217905092915050565b620002e4826200005f565b67ffffffffffffffff8111156200030057620002ff6200006a565b5b6200030c8254620000c8565b620003198282856200023e565b600060209050601f8311600181146200035157600084156200033c578287015190505b620003488582620002bb565b865550620003b8565b601f1984166200036186620000fd565b60005b828110156200038b5784890151825560018201915060208501945060208101905062000364565b86831015620003ab5784890151620003a7601f8916826200029b565b8355505b6001600288020188555050505b505050505050565b6105b380620003d06000396000f3fe60806040526004361061003f5760003560e01c806324600fc3146100445780633c68eb811461004e578063590791f214610058578063ce606ee014610083575b600080fd5b61004c6100ae565b005b610056610177565b005b34801561006457600080fd5b5061006d6101f1565b60405161007a91906102a0565b60405180910390f35b34801561008f57600080fd5b506100986101f9565b6040516100a5919061034b565b60405180910390f35b600047116100f1576040517f08c379a00000000000000000000000000000000000000000000000000000000081526004016100e8906103b9565b60405180910390fd5b600047905061dead73ffffffffffffffffffffffffffffffffffffffff166108fc829081150290604051600060405180830381858888f1935050505015801561013e573d6000803e3d6000fd5b507f79941d9e35be42850c8a3c8ba8ab5f793ef8fa44d6c6a936f6bb686f0c37ab8560405161016c90610425565b60405180910390a150565b600034116101ba576040517f08c379a00000000000000000000000000000000000000000000000000000000081526004016101b190610491565b60405180910390fd5b7f7cebee4ee226a36ff8751d9d69bb8265f5138c825f8c25d7ebdd60d972ffe5be6040516101e7906104fd565b60405180910390a1565b600047905090565b600080546102069061054c565b80601f01602080910402602001604051908101604052809291908181526020018280546102329061054c565b801561027f5780601f106102545761010080835404028352916020019161027f565b820191906000526020600020905b81548152906001019060200180831161026257829003601f168201915b505050505081565b6000819050919050565b61029a81610287565b82525050565b60006020820190506102b56000830184610291565b92915050565b600081519050919050565b600082825260208201905092915050565b60005b838110156102f55780820151818401526020810190506102da565b60008484015250505050565b6000601f19601f8301169050919050565b600061031d826102bb565b61032781856102c6565b93506103378185602086016102d7565b61034081610301565b840191505092915050565b600060208201905081810360008301526103658184610312565b905092915050565b7f4e6f2066756e647320617661696c61626c6520746f2077697468647261770000600082015250565b60006103a3601e836102c6565b91506103ae8261036d565b602082019050919050565b600060208201905081810360008301526103d281610396565b9050919050565b7f46756e6473206275726e6564207375636365737366756c6c7921000000000000600082015250565b600061040f601a836102c6565b915061041a826103d9565b602082019050919050565b6000602082019050818103600083015261043e81610402565b9050919050565b7f416d6f756e742073686f756c64206265206d6f7265207468616e203000000000600082015250565b600061047b601c836102c6565b915061048682610445565b602082019050919050565b600060208201905081810360008301526104aa8161046e565b9050919050565b7f5472616e73666572726564207375636365737366756c6c792100000000000000600082015250565b60006104e76019836102c6565b91506104f2826104b1565b602082019050919050565b60006020820190508181036000830152610516816104da565b9050919050565b7f4e487b7100000000000000000000000000000000000000000000000000000000600052602260045260246000fd5b6000600282049050600182168061056457607f821691505b6020821081036105775761057661051d565b5b5091905056fea264697066735822122065ec3e11e0e95dbaab5195ac11e212db3b51f7b11d770c0d603733ecb3031d5664736f6c63430008120033",
  "linkReferences": {},
  "deployedLinkReferences": {}
}